:020000040800F2
:10000000382C0020010100084D160008190C0008CA
:100010004916000859090008EB22000800000000FA
:100020000000000000000000000000008D19000822
:10003000D109000800000000D5160008ED1B0008DB
:100040001B0100081B0100081B0100081B01000820
:100050001B0100081B0100081B0100081B01000810
:100060001B0100081B0100081B0100081B01000800
:100070001B0100081B0100081B0100081B010008F0
:100080001B0100081B0100081B0100081B010008E0
:100090001B0100081B0100081B0100081B010008D0
:1000A0001B0100081B0100081B0100081B010008C0
:1000B0001B010008511C00081B0100081B0100085F
:1000C0001B0100081B0100081B0100081B010008A0
:1000D0001B010008651F00081B0100081B01000828
:1000E0001B0100081B0100081B010008DFF80CD0F1
:1000F00000F020FC0048004761440008382C002034
:100100000648804706480047FEE7FEE7FEE7FEE7B1
:10011000FEE7FEE7FEE7FEE7FEE7FEE7F11B00086D
:10012000ED00000840EA01039B0703D009E008C97D
:10013000121F08C0042AFAD203E011F8013B00F8AC
:10014000013B521EF9D27047D2B201E000F8012BF8
:10015000491EFBD270470022F6E710B513460A4647
:1001600004461946FFF7F0FF204610BDF0B480EAC0
:100170000102D40F4200B2EB410F02D20246084600
:1001800011464A0042D0C30DDDB2C1F3C752AD1AC9
:10019000202D35DAC1F3160141F4000204B15242B8
:1001A000C5F1200602FA06F12A411044B3EBD05FF4
:1001B00023D0C4B1012DA0EBC35009DCF0BC4FF03B
:1001C000004202EAC352DBB200F5000000F0F7BAC9
:1001D000400000F1807000EBC350A0F1807040EA55
:1001E000D170490009E0490841EAC071A0EBC35051
:1001F00000F50000400800EBC350F0BC00F0D6BA98
:100200006142012202EB4101001BF6E7F0BC70479E
:1002100081F00041AAE780F00040A7E780EA0102F0
:1002200010B502F00043400022D04A001FD0010E5A
:1002300001EB1261C0F35600C2F3560240F4000015
:1002400042F40002A0FB022000047F39140400D015
:10025000401C50EA124001D44000491EC2B20C06B4
:1002600004EBD010401C4008802A02D003E000209C
:1002700010BD20F00100002900DA0020184310BD55
:1002800030B480EA010202F0004530F0004221F073
:10029000004013D090B1C30DD40DC2F31601C0F3CA
:1002A0001600E41A41F4000140F400027D3491424A
:1002B00001D3641C00E04900002C02DA30BC0020AD
:1002C00070474FF400000023914201D3891A034381
:1002D00040084FEA4101F7D151B1914202D14FF0AC
:1002E000004105E002D24FF0010101E06FF0010191
:1002F00003EBC450284430BC00F058BA2DE9FE4F3F
:10030000804681EA0300C00F0C46009021F00041B6
:1003100023F00045B8EB0200A94105D24046214632
:1003200090461C460B46024623F00040104347D03F
:10033000270DC7F30A00C3F30A510290401A019037
:1003400040286BDAC3F3130040F4801B00989246F8
:1003500020B10023D2EB030A63EB0B0B0198594643
:10036000C0F14002504600F0F0F906460D465046F6
:100370005946019A00F008FA10EB08006141002488
:1003800087EA115284EAE7731A4340D0009A62B3B5
:10039000019A012A4FEA075215DC001B61EB0201AA
:1003A0004FF0004202EA0752CDE90042001C41F53D
:1003B000801132462B4600F03FFA03B0BDE8F08FC3
:1003C00040462146F9E7001B61EB0201001C41F5A4
:1003D000801300185B412018A2F5001747EB0301BA
:1003E00040EAD570B6196D4111E06D084FEA360646
:1003F00045EAC0754FEA0752001B61EB0201001C81
:1004000041F5801149084FEA300000195141324648
:100410002B4603B0BDE8F04F00F0FFB90098012271
:1004200040000023D0EB020263EBE073009821460A
:100430004FEAE074B8EB000061EB0401E9E783F0F8
:1004400000435BE781F0004158E72DE9FE4F81EA68
:10045000030404F0004421F0004100944FF0000B2D
:1004600023F0004350EA01045ED052EA03045BD05B
:10047000C3F30A54C1F30A552C44A4F2F334019493
:10048000A0FB0254C1F3130141F48011C3F3130321
:1004900043F4801301FB024400FB034E840A970AD5
:1004A00044EA815447EA8357A4FB076802958D0A02
:1004B00005FB07854FEA932C04FB0C542705029D8E
:1004C0004FEA065847EA1637B5EB08056EEB070CFE
:1004D000870E920E47EA811742EA8312A7FB0201B8
:1004E000B6EB0B0164EB00042B0D43EA0C335E18F2
:1004F00044EB1C50DA465146E7FB0201C5F31304F6
:100500004FEA0B3343EA14534FEA0432019C43EAA7
:100510000603A4F10C040294009CCDE900B400F0A1
:100520008BF903B0BDE8F08F00200146F9E72DE913
:10053000F04D81EA030404F0004B21F0004514461D
:100540004FF0000A23F0004150EA050220D054EA9F
:1005500001021DD0C5F30A570246C5F31303C1F3C8
:100560001300C1F30A5640F4801543F48013A7EB3F
:100570000608101BD64608F2FD3873EB050002D3BF
:1005800008F1010801E092185B41B8F1000F03DAAD
:1005900000200146BDE8F08D00204FF48011064692
:1005A00084460EE0171B73EB050705D3121B63EBA4
:1005B000050306434CEA010C49084FEA3000921843
:1005C0005B4150EA0107EDD152EA030012D082EA02
:1005D000040083EA0501084305D0101BAB4106D295
:1005E0000122002306E000224FF0004302E06FF0FA
:1005F000010253101AEB06004CEB085110EB0A00F5
:1006000041EB0B01BDE8F04D00F007B9C10F80EAE6
:10061000E0700844CA079623002100F0D0B8962362
:100620000022114600F0CBB80EB5C10F80EAE07091
:100630000844CA07002140F233438DE80E000A4601
:100640000B4600F0F9F803B000BD00F0004230F0B6
:1006500000400AD0C10D01F56071C0F3160042EAF6
:100660000151C208400711437047002001467047FE
:1006700001F0004330B421F0004150EA010206D0FD
:100680000A0DA2F56072C1F31301002A02DC30BC2E
:1006900000207047440F44EAC104C100E01830BC98
:1006A00000EBC25000F082B8002801DBC0F100402E
:1006B000002901DBC1F100418142704730B50B4692
:1006C000014600202022012409E021FA02F59D4282
:1006D00005D303FA02F5491B04FA02F52844151E56
:1006E000A2F10102F1DC30BD2DE9F05F05460020EA
:1006F00092469B4688460646814640241BE0284693
:1007000041464746224600F02FF853465A46C01A43
:10071000914110D311461846224600F016F82D1AC2
:1007200067EB01084F4622460120002100F00DF83A
:1007300017EB00094E41201EA4F10104DFDC4846FE
:1007400031462A464346BDE8F09F202A04DB203A82
:1007500000FA02F1002070479140C2F1200320FA14
:1007600003F3194390407047202A04DB203A21FA12
:1007700002F00021704721FA02F3D040C2F12002BA
:100780009140084319467047202A06DBCB17203AD0
:1007900041FA02F043EAE07306E041FA02F3D04086
:1007A000C2F1200291400843194670470029A8BFB2
:1007B0007047401C490008BF20F00100704710B48A
:1007C000B0FA80FC00FA0CF050EA010404BF10BC3F
:1007D000704749B1CCF1200421FA04F411FA0CF16C
:1007E00018BF012121430843A3EB0C01CB1D4FEAA5
:1007F00000614FEA102042BF002010BC704700EBA0
:10080000C35010440029A4BF10BC7047401C4900CD
:1008100008BF20F0010010BC704710B5141E73F122
:10082000000408DA401C41F1000192185B411A43B0
:1008300001D120F0010010BD2DE9F04D92469B46FC
:1008400011B1B1FA81F202E0B0FA80F220329046A2
:10085000FFF77BFF04460F4640EA0A0041EA0B011E
:1008600053465A46084313D0114653EA010019D0A3
:10087000C8F140025046FFF777FF05460E46504646
:1008800059464246FFF761FF084305D0012004E0C6
:1008900020463946BDE8F08D0020054346EAE07663
:1008A0002C4337430A986305E40AA0EB08000022B2
:1008B000FD0A44EA47540A3002D500200146E9E720
:1008C000010510196941DDE9084500196941BDE8D4
:1008D000F04DA2E7C1F30A52C1F3130140F2FF3316
:1008E00041F480119A4202DA00200146704740F23A
:1008F00033439A42A2F2334202DC5242FFF734BF42
:10090000FFF723BF30B5041E71F1000404DB4FF084
:100910000044404264EB0101141E73F1000405DB46
:100920001C464FF00043524263EB0403994208BF58
:10093000904230BD064C074D06E0E06840F00103F0
:1009400094E8070098471034AC42F6D3FFF7D2FB87
:100950001C4600083C46000800BFFEE72DE9F047B2
:100960000546884616461F46DDE9089A002451468A
:10097000164802F071FF04434146144803F0DEFAC2
:1009800004433146114803F0A2FC044339460F48A2
:1009900003F0B7FA044349460C4803F07BFC0443D8
:1009A00025B10A4802F0E5FE044303E0074802F0DF
:1009B0001AFF0443054802F0ADFF04434EF66020E1
:1009C00003F0ABFC2046BDE8F0870000A00000204B
:1009D00070472DE9F0410246002500260020002343
:1009E0000024002791F803C00CF00F0591F803C014
:1009F0000CF0100CBCF1000F03D091F802C04CEACF
:100A0000050591F800C0BCF1000F31D0146800203A
:100A10002BE04FF0010C0CFA00F3B1F800C00CEA27
:100A200003069E4220D183004FF00F0C0CFA03F70F
:100A3000BC4305FA03FC4CEA040491F803C0BCF182
:100A4000280F06D14FF0010C0CFA00FCC2F814C0BC
:100A50000AE091F803C0BCF1480F05D14FF0010C3A
:100A60000CFA00FCC2F810C0401C0828D1D3146056
:100A7000B1F800C0BCF1FF0F34DD546800202EE057
:100A800000F1080C4FF0010808FA0CF3B1F800C0AF
:100A90000CEA03069E4221D183004FF00F0C0CFAA2
:100AA00003F7BC4305FA03FC4CEA040491F803C0C5
:100AB000BCF1280F05D100F1080C08FA0CF8C2F8B7
:100AC000148091F803C0BCF1480F07D100F1080C65
:100AD0004FF0010808FA0CF8C2F81080401C0828F2
:100AE000CED35460BDE8F0810161704730B587B066
:100AF00004460025A11D2C4802F073F804F10C01F6
:100B0000294802F06EF8B4F9060010F5004F1ED027
:100B1000B4F90C0010F5004F19D0B4F91000B4F975
:100B20000E10B4F90C20B4F91230CDE90232CDE93F
:100B30000410B4F90A00B4F90810CDE90010B4F9B2
:100B400006302A46AA2119A001F0D2FB2AE0B4F906
:100B50000C0010F5004F10D0B4F91010B4F90E00CD
:100B6000B4F90C20CDE900200291B4F912302A46E4
:100B7000AE2117A001F0BCFB14E0B4F9060010F59B
:100B8000004F0FD0B4F91200B4F90A10B4F90820DC
:100B9000CDE900210290B4F906302A46B12115A012
:100BA00001F0A6FB07B030BD1400002025642C2501
:100BB000753A2025642C2025642C2025642C2025C2
:100BC000642C2025642C2025642C2025640D0A002B
:100BD00025642C25753A204E412C204E412C204E68
:100BE000412C2025642C2025642C2025642C2025D4
:100BF000640D0A0025642C25753A2025642C2025D7
:100C0000642C2025642C2025642C204E412C204E61
:100C1000412C204E410D0A0000BFFEE708B501211E
:100C2000082000F079FDC020ADF8000010208DF8FC
:100C3000030003208DF8020069460248FFF7C9FE51
:100C400008BD0000000C01400FB59DB0FE480168D2
:100C50000068FFF7E3FA1090FC480168FA48006862
:100C6000FFF7DCFA0F90FA480168F7480068FFF7D1
:100C7000D5FA0E90F7480168F3480068FFF7CEFAFE
:100C80000D90F24801680068FFF7C8FA0C90F04830
:100C90000168EE480068FFF7C1FA0B90ED48016863
:100CA000EA480068FFF7BAFA0A90E9480168006864
:100CB000FFF7B4FA0990E7480168E5480068FFF7D4
:100CC000ADFA0890E34801680068FFF7A7FA0790BB
:100CD000E1480068E149086008460068E0490968A1
:100CE000884210D2DE4800684FF6FF71081ADB49CF
:100CF000096808440590FFF792FCDA490690FFF76F
:100D0000BFFA15900CE0D5480068D5490968401A2B
:100D10000590FFF784FCD3490690FFF7B1FA1590D0
:100D2000CE480068CE49086023990846FFF776FA56
:100D3000059022990846FFF771FA0390209908461A
:100D4000FFF76CFA02900399FFF710FA04900599E7
:100D5000FFF70CFA069002F04DFA1C901C992098AF
:100D6000FFF75CFA20901C992298FFF757FA22901F
:100D70001C992398FFF752FA239026990846FFF70B
:100D80004DFA059025990846FFF748FA03902499F3
:100D90000846FFF743FA02900399FFF7E7F904903A
:100DA0000599FFF7E3F9069002F024FA1C901C99CC
:100DB0002498FFF733FA24901C992598FFF72EFA10
:100DC00025901C992698FFF729FA26900E990A98E3
:100DD000FFF71EFA4FF080410690FFF71FFA1B90B5
:100DE00008990F98FFF7C2F94FF080410690FFF77E
:100DF00015FA1A900C991098FFF70AFA05900999BC
:100E0000FFF706FA06900799FFF7B0F91990904896
:100E100001680068FFF702FA04908E4801680068D4
:100E2000FFF7FCF903900499FFF7A0F94FF0804118
:100E30000590FFF7F3F94FF07E510690FFF7EBF9BD
:100E4000894908608248016880480068FFF7E6F930
:100E500005907D48006880F0004003907D4801685F
:100E60000398FFF7DBF904900599FFF77FF94FF03E
:100E700080410690FFF7D2F97B49486075480168C8
:100E800072480068FFF7CAF90590714801686E481A
:100E90000068FFF7C3F904900599FFF7B9F94FF01F
:100EA00080410690FFF7BAF96F4988606848016889
:100EB00066480068FFF7B2F9059066480168624825
:100EC0000068FFF7ABF904900599FFF74FF94FF071
:100ED00080410690FFF7A2F9644908605B48016809
:100EE0000068FFF79BF904905A4801680068FFF713
:100EF00095F903900499FFF739F94FF08041059077
:100F0000FFF78CF94FF07E510690FFF784F95749AF
:100F10004860504801684E480068FFF77FF9059027
:100F20004948006880F000400390484801680398F1
:100F3000FFF774F904900599FFF718F94FF0804115
:100F40000690FFF76BF9494988601A992398FFF7D3
:100F500065F9069019992298FFF760F905900699AE
:100F6000FFF756F9189019992098FFF757F906904E
:100F70001B992398FFF752F905900699FFF748F956
:100F800017901B992298FFF749F906901A99209813
:100F9000FFF744F905900699FFF73AF916900021FA
:100FA0001898FFF781FB6BD000211798FFF77CFBA7
:100FB00066D000211698FFF777FB7DD02C49189852
:100FC000FFF72CF905901599FFF728F906902948A5
:100FD00001680698FFF7CAF826490860244917985F
:100FE000FFF71CF905901599FFF718F906902248AC
:100FF00001680698FFF7BAF81F4908601C4916985F
:10100000FFF70CF905901599FFF708F906901B48B2
:1010100001680698FFF7AAF8184908604FF07C505D
:101020001899FFF7FBF805901D99FFF79FF80690B8
:10103000104801680698FFF799F81D904FF07C5012
:101040001799FFF7EBF81CE044000020480000204F
:101050004C000020500000207400002060000020A0
:101060005C00002000409C46200900202C09002044
:101070006F12833A380000203C000020400000201E
:101080001AE005901E99FFF771F806907248016802
:101090000698FFF76BF81E904FF07C501699FFF7FB
:1010A000BDF805901F99FFF761F806906B4801683D
:1010B0000698FFF75BF81F9069481F990068FFF7D3
:1010C000ADF8049067481E990068FFF7A7F80290F2
:1010D0006548006880F0004000901D99FFF79EF879
:1010E00001900299FFF794F803900499FFF790F8A4
:1010F00005901599FFF792F806905C4801680698EC
:10110000FFF734F8149056481E990068FFF786F8E8
:10111000049054481F990068FFF780F802905348E4
:1011200001681D98FFF77AF801900299FFF71EF801
:1011300003900499FFF76CF805901599FFF76EF886
:101140000690494801680698FFF710F81390444844
:1011500001681D98FFF762F8049043481F990068E2
:10116000FFF75CF8029041481E990068FFF756F8B7
:1011700001900299FFF74CF803900499FEF7F6FFEF
:1011800005901599FFF74AF80690364801680698C9
:10119000FEF7ECFF1290334801681D98FFF73EF808
:1011A000049031481E990068FFF738F802902F48E4
:1011B0001F990068FFF732F801900299FEF7D6FFF9
:1011C00003900499FFF724F805901599FFF726F886
:1011D0000690234801680698FEF7C8FF1190119900
:1011E0000846FFF71BF8059012990846FFF716F816
:1011F000039013990846FFF711F8019014990846D7
:10120000FFF70CF800900199FEF7B0FF02900399E8
:10121000FEF7ACFF04900599FEF7A8FF069001F0D9
:10122000E9FF1C901C991498FEF7F8FF0F4908601D
:101230001C991398FEF7F2FF0B4908601C9912984D
:10124000FEF7ECFF074908601C991198FEF7E6FFCE
:101250000349086021B000BD3C0000204000002090
:10126000500000204C0000204800002044000020D6
:101270002DE9F04FAFB02BA800F0B2F824A800F091
:1012800007F946492498FEF7FBFF04464449FEF758
:10129000C5FF219041492598FEF7F2FF04464049D9
:1012A000FEF7BCFF22903D492698FEF7E9FF044671
:1012B0003B49FEF7B3FF23903A492798FEF7AEFF6C
:1012C00004463949FEF7DCFF1E9036492898FEF7A0
:1012D000A5FF04463449FEF7D3FF1F9031492998F2
:1012E000FEF79CFF04463049FEF7CAFF2090239882
:1012F000FFF7ABF904460D462298FFF7A6F906461C
:101300000F462198FFF7A1F9804689462098FFF7FC
:101310009CF982468B461F98FFF797F9CDE91C018F
:101320001E98FFF792F9CDE91A012B98FFF78DF976
:10133000CDE918012E98FFF788F9CDE916012D980F
:10134000FFF783F9CDE914012C98FFF77EF9CDE979
:101350000AABCDE90C89CDE90E67CDE91045CDE9A1
:101360001201DDE91C01CDE90801DDE91A01CDE931
:101370000601DDE91801CDE90401DDE91601CDE939
:101380000201DDE91401CDE9000108A0DDE9122325
:1013900000F0AEFF2FB0BDE8F08F000000007A44EF
:1013A0000AE81C41DB0F494000003443252E366615
:1013B0002C252E36662C252E36662C252E36662CB0
:1013C000252E36662C252E36662C252E36662C25A7
:1013D0002E36662C252E36662C252E36660D0A00F6
:1013E0002DE9F04186B00446224800F051F8214929
:1013F00048692149FEF712FF80462049FEF740FF69
:1014000005461C4908691C49FEF708FF80461B4930
:10141000FEF736FF06461749C8681749FEF7FEFE75
:1014200080461649FEF72CFF07461248006A11490C
:10143000C969104A92690F4B9B68CDE90132CDE929
:1014400003100C48406800900A482A463146036859
:101450003846FFF7F9FB0A48006820600948006831
:10146000606009480068A06008480068E06006B055
:10147000BDE8F081D4250020DB0F49400000344353
:1014800044000020480000204C00002050000020B4
:1014900010B58CB0044606A909A801F0F7FB2E4947
:1014A000099808600A9848600B9888600698C86098
:1014B0000798086108984861002088616B4603AA74
:1014C000642125480C3001F081FC24490398FFF782
:1014D000EBF81ED221490498FFF7E6F819D21F490C
:1014E0000598FFF7E1F814D21D480068632810DB67
:1014F0001C490098086001984860029888600020A4
:1015000019490860194908601949086014490860B8
:1015100008E013480068642804DA11480068401C99
:101520000F490860099820600A9860600B98A060D5
:101530000C4A11680698FEF76BFEE060094A516894
:101540000798FEF765FE2061064A91680898FEF745
:101550005FFE60610CB010BD4C0900200AD7A33CAF
:1015600070000020C8250020380000203C0000202A
:101570004000002010B500F02FF84FF07E500C49CD
:10158000086000200B4908600B4908600B4908609F
:101590000B4908600B4908600B4908600B4800685C
:1015A0000B490860094800680A49086010BD00003E
:1015B00044000020480000204C0000205000002083
:1015C000380000203C000020400000207400002073
:1015D0005C000020600000201FB50121022000F007
:1015E0007BF8184800F05EFB6320ADF80800472048
:1015F000ADF804000020ADF80A00ADF8060001A91E
:10160000104800F05DFC01210E4800F039FB01227A
:1016100011460C4800F04BFC01210A4800F036FB53
:101620004FF4C06000F04CF81D208DF80000012040
:101630008DF801008DF802008DF80300684600F077
:1016400007F81FBD0004004000BFFEE77047000020
:1016500070B5002100230F22C47804B3154C246810
:1016600004F4E064C4F5E064210AC1F10403CA4053
:10167000447804FA03F184781440214309010E4CA4
:101680000678A155047804F01F050124AC400578C4
:101690006D11AD0005F1E025C5F8004109E00478C1
:1016A00004F01F050124AC40044D0678761145F87E
:1016B000264070BD0CED00E000E400E080E100E0B9
:1016C00002490143024A1160704700000000FA0518
:1016D0000CED00E07047000029B1064AD2690243D0
:1016E000044BDA6104E0034AD2698243014BDA61B8
:1016F000704700000010024029B1064A12690243F7
:10170000044B1A6104E0034A12698243014B1A61D7
:10171000704700000010024029B1064A9269024356
:10172000044B9A6104E0034A92698243014B9A6137
:10173000704700000010024029B1064AD2680243F7
:10174000044BDA6004E0034AD2688243014BDA605A
:10175000704700000010024030B500210022002434
:1017600000232D4D6D6805F00C0121B1042905D031
:10177000082923D105E0294D056022E0274D0560A9
:101780001FE0254D6D6805F47012234D6D6805F45A
:101790008034022505EB92421CB9214D554305606A
:1017A0000BE01D4D6D6805F400351DB11C4D554312
:1017B000056002E0194D5543056002E0174D0560D4
:1017C00000BF00BF144D6D6805F0F0010909154D0B
:1017D0006B5C0568DD4045600F4D6D6805F4E061A8
:1017E000090A104D6B5C4568DD4085600A4D6D68E7
:1017F00005F46051C90A0B4D6B5C4568DD40C5605E
:10180000054D6D6805F44041890B074D6B5CC5685B
:10181000B5FBF3F5056130BD0010024000127A00FF
:1018200000093D00880000209800002008B5012133
:101830000C20FFF771FF01218803FFF74DFF4FF4E4
:101840006040ADF8000018208DF8030003208DF8EB
:10185000020069461848FFF7BCF80420ADF8000004
:1018600010208DF8030003208DF80200694613480C
:10187000FFF7AFF84FF460410F48FFF735F900204C
:101880000F4908804FF48270488000208880022031
:10189000C8800120088140024881382088810020CA
:1018A000C88107200882074800F052F80121054846
:1018B00000F034F808BD0000000C014000080140B1
:1018C000F82500200038004070B50546002405E0EA
:1018D000601CC4B2C82C01DD002070BD02210E487E
:1018E00000F028F80028F3D029460B4800F02EF825
:1018F000002405E0601CC4B2C82C01DD0020ECE728
:101900000121054800F016F80028F3D0024800F045
:101910001AF8C0B2E1E700000038004021B10288A7
:1019200042F04002028004E002884FF6BF731A4082
:10193000028070470246002013890B400BB1012042
:1019400000E0002070470146888970478181704718
:1019500010B50022028802F441520B884C882343C0
:101960008C882343CC8823430C8923434C8923430D
:101970008C892343CC8923431A430280838B4FF203
:10198000FF74234083830B8A038210BD704710B518
:1019900000F002F810BD00000CB50020019000908E
:1019A0003348006840F480303149086000BF304857
:1019B000006800F4003000900198401C01900098ED
:1019C00018B90198B0F5A06FF1D12948006800F46A
:1019D000003010B10120009001E00020009000983C
:1019E000012843D12348006840F0100021490860D5
:1019F0000846006820F0030008600846006840F0D0
:101A0000020008601A484068194948600846406862
:101A100048600846406840F4806048600846406876
:101A200020F47C1048600846406840F4E8104860A4
:101A30000846006840F08070086000BF0C480068ED
:101A400000F000700028F9D00948406820F0030039
:101A5000074948600846406840F00200486000BFFF
:101A60000348406800F00C000828F9D10CBD0000C4
:101A7000001002400020024038B5054600244821ED
:101A80001AA000F035FC204A2946204802F018F838
:101A9000044600211D4801F0ADFC04432CB14E2149
:101AA0001BA000F025FC204638BD532124A000F0E7
:101AB0001FFC6946154801F0F9FF04462CB1572177
:101AC00028A000F015FC2046EEE79DF8000047280E
:101AD00009D047239DF800205C21304800F008FC25
:101AE0004FF0FF30E0E72046DEE7000025642C4998
:101AF0006E697469616C697A652049636D34323648
:101B000078780D0A00000000ED0A0008A00000200F
:101B100025642C212121204552524F52203A206623
:101B200061696C656420746F20696E697469616CA9
:101B3000697A652049636D34323678782E0D0A0053
:101B400025642C436865636B2049636D34323678B5
:101B5000782077686F616D692076616C75650D0A14
:101B60000000000025642C212121204552524F52B3
:101B7000203A206661696C656420746F207265612B
:101B8000642049636D34323678782077686F616DF0
:101B9000692076616C75652E0D0A0000D845000835
:101BA0000021016005494160054981604FF44061B1
:101BB000016141610021816170470000A943000873
:101BC000E9430008042808D14FF0E021096941F0F9
:101BD00004014FF0E022116107E04FF0E0210969B4
:101BE00021F004014FF0E0221161704770470000BE
:101BF00010B51348006840F001001149086008461C
:101C00004068104908400E494860084600680E497F
:101C100008400B4908600846006820F480200860EE
:101C20000846406820F4FE0048604FF41F008860BA
:101C3000FFF7ADFE4FF000600449086010BD0000E2
:101C4000001002400000FFF8FFFFF6FE08ED00E084
:101C500010B50121084800F019F960B10748006883
:101C6000401C064908600121034800F00CF80121DE
:101C7000014800F005F810BD000400407400002089
:101C8000CA4302827047CA430282704721B1028868
:101C900042F00102028004E002884FF6FE731A400F
:101CA0000280704710B504466848844208D101217B
:101CB000C014FFF741FD0021E014FFF73DFDC4E033
:101CC000B4F1804F08D101210846FFF715FD00212E
:101CD0000120FFF711FDB8E05D48844208D10121E1
:101CE0000220FFF709FD00210220FFF705FDACE00F
:101CF0005848844208D101210420FFF7FDFC00214F
:101D00000420FFF7F9FCA0E05348844208D10121E8
:101D10000820FFF7F1FC00210820FFF7EDFC94E01C
:101D20004E48844208D101211020FFF7E5FC002134
:101D30001020FFF7E1FC88E04948844208D10121E6
:101D40002020FFF7D9FC00212020FFF7D5FC7CE004
:101D50004448844208D101214014FFF7EDFC0021E2
:101D60006014FFF7E9FC70E03F48844209D101218B
:101D7000C804FFF7E1FC00214FF40020FFF7DCFC72
:101D800063E03A48844209D101210805FFF7D4FCF9
:101D900000214FF48010FFF7CFFC56E03448844216
:101DA00009D101214805FFF7C7FC00214FF40010BD
:101DB000FFF7C2FC49E02F48844208D101214020AE
:101DC000FFF79AFC00214020FFF796FC3DE02A48EF
:101DD000844208D101218020FFF78EFC0021802061
:101DE000FFF78AFC31E02548844208D101218015A3
:101DF000FFF782FC0021A015FFF77EFC25E02048BC
:101E0000844209D101210804FFF796FC00214FF418
:101E10008030FFF791FC18E01A48844209D1012173
:101E20004804FFF789FC00214FF40030FFF784FCE1
:101E30000BE01548844208D101218804FFF77CFC9F
:101E400000214FF48020FFF777FC10BD002C0140EB
:101E50000004004000080040000C0040001000405A
:101E60000014004000340140004C0140005001408B
:101E70000054014000180040001C004000200040B9
:101E800000400140004401400048014030B5024696
:101E9000002000230024158A05EA0103958905EA3C
:101EA000010413B10CB1012000E0002030BD1AB1D3
:101EB00083890B43838102E083898B43838170474D
:101EC000002202881D4B98420ED01D4B98420BD029
:101ED000B0F1804F08D01B4B984205D01A4B984266
:101EE00002D01A4B984204D14FF68F731A404B8898
:101EF0001A43174B984207D0164B984204D04FF61E
:101F0000FF431A40CB881A4302808B8883850B8855
:101F100003850A4B98420BD0094B984208D00E4BD0
:101F2000984205D00D4B984202D00D4B984201D1FA
:101F30000B7A03860123838270470000002C014046
:101F4000003401400004004000080040000C004044
:101F500000100040001400400040014000440140D7
:101F60000048014010B540F22771414800F0F8F8F0
:101F7000E0B1404802780078401C3E4B18703E4863
:101F8000815C3B4800F0ADF940F22771384800F021
:101F90007DF83848007839490978884267D10022AD
:101FA00040F22771324800F005F960E040F2255117
:101FB0002F4800F0D5F8002859D02D4800F08CF9B2
:101FC000C4B2A52C0DD12E48007840F080002C49D9
:101FD00008702C490878411C2A4A11702A490C546F
:101FE00037E05A2C1CD12648007800F0800048B118
:101FF0000020244908702248007820F04000204941
:10200000087006E01F490878411C1E4A11701E49DD
:102010000C541B48007820F080001949087018E023
:1020200018490878411C174A117017490C54144874
:10203000007820F08000124908701348007811469B
:102040000978884205D10E48007840F040000C49DC
:1020500008700C480078642804D10A480078401EB3
:102060000849087040F22551014800F00FF810BDF2
:10207000003801407C0000200A2600207D0000205E
:102080008700002086000020D427002010B5002201
:10209000002340F66A14A14200D100BF0A120124B5
:1020A0009440A3B2DC43048010BD21B1828942F484
:1020B0000052828104E082894DF6FF731A408281CA
:1020C0007047000010B504462048844209D1012120
:1020D0008803FFF731FB00214FF48040FFF72CFB12
:1020E00032E01B48844209D101214804FFF704FB78
:1020F00000214FF40030FFF7FFFA25E01548844235
:1021000009D101218804FFF7F7FA00214FF480205C
:10211000FFF7F2FA18E01048844209D10121C804FF
:10212000FFF7EAFA00214FF40020FFF7E5FA0BE091
:102130000A48844208D101210805FFF7DDFA002191
:102140004FF48010FFF7D8FA10BD000000380140AE
:102150000044004000480040004C00400050004057
:1021600070B50246002400230025002040F66A16C0
:10217000B14200D100BFC1F3421501F01F03012697
:1021800006FA03F3012D02D19689334006E0022DB1
:1021900002D1168A334001E0968A33400C120126A0
:1021A00006FA04F41688344013B10CB1012000E0A3
:1021B000002070BDF0B50346002400260025002055
:1021C00040F66A17B94200D100BF1846C1F3421465
:1021D00001F01F06012707FA06F5012C01D10C308A
:1021E00004E0022C01D1103000E014301AB107686D
:1021F0002F43076002E00768AF430760F0BD0000AF
:102200002DE9F04786B005460E460024A24600BFE1
:10221000A1460027B08900B100BF2F462C8A4CF69A
:10222000FF700440F08804432C82AC894EF6F31012
:102230000440B08831890843718908430443AC8164
:10224000AC8A4FF6FF400440B0890443AC8201A839
:10225000FFF782FA1F48874202D1DDF810A001E0A3
:10226000DDF80CA0A88900F4004040B10AEBCA00D8
:1022700000EB0A1031684900B0FBF1F807E00AEB07
:10228000CA0000EB0A1031688900B0FBF1F8642045
:10229000B8FBF0F004012009642101FB1089A88932
:1022A00000F4004040B1322000EBC900B0FBF1F077
:1022B00000F00700044308E0322000EB091064211D
:1022C000B0FBF1F000F00F0004432C8106B0BDE834
:1022D000F08700000038014001468888C0F30800FC
:1022E0007047C1F308028280704700BFFEE700001C
:1022F0000FB4054B10B503A9044A029800F0DAF8B0
:1023000010BC5DF814FB000099310008800000202B
:1023100002E008C8121F08C1002AFAD170477047AE
:10232000002001E001C1121F002AFBD1704700000C
:102330002DE9FF5F82B00021DDE90430020DDDF8F8
:1023400040B0034318D044F61050A2F2FF3242438B
:102350001514119801281FD0A5EB0B00401C5FEA53
:10236000000A4FF000064E4FDFF83891B046504655
:1023700015D5CAF1000413E0119801244AA30128DD
:1023800001D16FEA0B010298119AC0E90031C0E94E
:10239000024206B0BDE8F09FCBF10000DFE7044643
:1023A0000021404A491842EB0450CDE9001012E0E8
:1023B000E00707D032463B4640464946FEF745F81F
:1023C0008046894632463B4610461946FEF73DF8A0
:1023D00006460F466410002CEAD1DDE90401DDE970
:1023E0000023BAF1000F06DAFEF72FF842464B46FB
:1023F000FEF72BF805E0FEF79AF842464B46FEF74B
:1024000096F804460E460022284BFEF77BFA03D8C6
:102410004FF0FF30014607E00022254B20463146B1
:10242000FDF76CFFFEF756FA102409E0002C0ADBDA
:102430000A220023FEF758F9039B30321A55641E16
:1024400050EA0102F2D1641C039AC4F1110314444E
:10245000119A012A03D0012208430DD10AE0084352
:1024600004D000204FF0110B119072E7A3EB0B0585
:102470006D1E0DE05B4504DD4FF0000205F1010526
:1024800004E003DA4FF00002A5F10105002AECD0C8
:1024900002981199C0E90231C0E9004579E70000CE
:1024A000000014400000F03F300000000000F04346
:1024B0000000E03F2DE9FF4F95B09B468946064658
:1024C00000250FE2252877D100242746F84A01216C
:1024D000059400E0044316F8013F203B01FA03F0A5
:1024E0001042F7D130782A2811D06FF02F033078BE
:1024F000A0F13002092A16D8059A44F0020402EB32
:10250000820203EB42021044761C0590EFE759F873
:10251000042B0592002A03DA504244F4005405903B
:1025200044F00204761C30782E2816D116F8010FDC
:1025300044F004042A280DD06FF02F023078A0F167
:102540003003092B09D807EB870302EB4303C718B5
:10255000761CF3E759F8047B761C30786C280FD092
:1025600006DC4C2817D068280DD06A2814D104E066
:10257000742810D07A280FD10DE044F400140AE03A
:1025800044F4801401E044F440147278824202D191
:1025900004F58014761C761C307866280BD013DC8A
:1025A000582877D009DC002875D04528F6D0462871
:1025B000F4D047281AD19DE118E0632835D064286B
:1025C00079D0652812D195E1702873D008DC67288E
:1025D000F1D069286FD06E280DD06F2806D1B5E0F4
:1025E00073282CD0752875D0782874D05A4617993E
:1025F00090476D1C75E1C4F30250022809D00328EE
:102600000DD0D9F8001004280DD00D6009F104098F
:1026100067E1D9F80010EA17C1E90052F6E7D9F8E6
:1026200000100D80F2E70D70F0E719F8041B8DF82B
:10263000001000208DF80100EA46012003E059F85F
:1026400004AB4FF0FF3061074FF0000102D40DE002
:1026500008F101018846B9420FDA8045F8DB1AF823
:1026600008100029F4D108E008F1010188468142F0
:10267000FADB1AF808100029F6D105985B46A0EBA2
:10268000080721463846179A00F094FA284400EBD0
:10269000080507E04DE029E10DE01AF8010B5A4664
:1026A00017999047B8F10108F7D25B4621463846A2
:1026B000179A13E142E00A220092C4F302524FF04B
:1026C000000A022A08D059F804CB032A4FEAEC7119
:1026D0000AD00DE029E02AE009F1070121F0070204
:1026E000F2E802C1914609E00FFA8CFC4FEAEC7166
:1026F000042A03D14FFA8CFC4FEAEC71002907DA67
:102700000A460021DCF1000C61EB02012D2202E0FF
:10271000220504D52B228DF80420012203E0E207D4
:1027200001D02022F7E7904659E00A2102E010226A
:102730000DE010214FF0000A00910BE010224FF045
:10274000000A44F004040827009203E008224FF036
:10275000000A0092C4F30252022A05D059F804CBB1
:102760000021032A08D009E009F1070121F007023E
:10277000F2E802C1914605E01FFA8CFC042A01D15F
:102780000CF0FF0C4FF00008220728D5702806D067
:10279000009B83F0100353EA0A0305D00EE04022A9
:1027A0008DF80420012208E05CEA010206D0302204
:1027B0008DF804208DF8050002229046009B83F0DE
:1027C000080353EA0A030AD15CEA010201D1620755
:1027D00005D530228DF804204FF001087F1E5828BF
:1027E00004D034A003900EA802900DE036A0F9E7C3
:1027F00053466046009AFDF777FF84460398825C53
:102800000298401E029002705CEA0100F0D102982A
:1028100006A9081A00F1200A600702D524F48034C2
:1028200000E00127574502DDA7EB0A0000E0002089
:1028300000EB0A01009005984144401A0590E0031E
:1028400006D45B462146179A059800F0B3F9054473
:10285000002706E001A85A46C05D179990476D1CF5
:102860007F1C4745F6DBE0030CD55B462146179AF3
:10287000059800F09FF9054404E030205A46179966
:1028800090476D1C0099481E00900029F5DC08E077
:10289000029802995A460078491C0291179990476C
:1028A0006D1CBAF10001AAF1010AF1DC65E100003A
:1028B0000928010030313233343536373839616216
:1028C00063646566000000003031323334353637DA
:1028D00038394142434445460000000000F058F9B1
:1028E0000544761C307800287FF4ECAD19B02846FA
:1028F000BDE8F08F620700D4062709F1070222F035
:10290000070CFCE80223E14603F000485FEA080CEC
:1029100002D00FF2702C0DE05FEA045C02D50FF2DA
:10292000682C07E05FEAC47C02D00FF2602C01E063
:10293000AFF2700C4FF0FF3823F00043CDF850C0D9
:1029400065280CD006DC452809D046281DD047282C
:102950003DD13DE0662818D067287ED138E00021BF
:10296000112F01DB112000E0781CCDE9000106A940
:102970000EA8FFF7DDFCDDE90F010E9A039100219F
:10298000009207F1010A04914DE04FF000400097DA
:10299000CDE9011006A90EA8FFF7CAFCDDE90F0278
:1029A00003920E9B11990022DDF80CA00093049273
:1029B00011B9791C00EB010AB7EB0A0004D4C0F18D
:1029C000FF3007F1010A0490AAEB0700019044E0F0
:1029D000012F00DA01270021112F01DD112000E075
:1029E0003846CDE9000106A90EA8FFF7A1FCDDE9F4
:1029F0000F010E9A0391002104910092BA4621071B
:102A00000CD40399514500DA8A46BAF1010F05DD6D
:102A1000009AAAF10101515C302908D0B84202DACB
:102A200010F1040F06DA0121CDE9011015E0AAF139
:102A30000101E9E7002805DC049901440491AAEBAF
:102A4000000102E0411C514500DD8A460499401A0C
:102A5000401C01904FF000400290200704D40198E0
:102A6000504501DBCDF8048000208DF84F0002981E
:102A70000DF14F07B0F1004F25D02B200E9002989A
:102A80004FF0020800280CDA404202902D200E90F0
:102A900007E00A210298FDF711FE3031029007F895
:102AA000011DB8F10001A8F10108F2DC029800282C
:102AB000EFD1791E0E980870307800F0200040F0B9
:102AC000450007F8020D12A8C01B00F10708149872
:102AD000007800B1012000EB0A01019801EBE071E0
:102AE00005984144401A401E0590E00306D45B4619
:102AF0002146179A059800F05DF80544149800786F
:102B000018B15A46179990476D1CE00324D55B46CF
:102B10002146179A059800F04DF805441CE00498EA
:102B2000002807DBDDE90301884203DD0098405CF3
:102B3000179901E0179930205A469047049805F1FB
:102B40000105401C04900198401E019004D12E20E4
:102B50005A46179990476D1CBAF10001AAF1010A73
:102B6000DDDC05E017F8010B5A46179990476D1CFC
:102B7000B8F10001A8F10108F4DC5B462146179A80
:102B80000598ABE62D0000002B000000200000009F
:102B90002DE9F041044600251E461746880404D45A
:102BA00005E039462020B0476D1C641EF9D5284643
:102BB000BDE8F0812DE9F041044600251E4690460F
:102BC000C80301D5302700E02027880404D505E09C
:102BD00041463846B0476D1C641EF9D52846BDE80D
:102BE000F08170B586B00246002036E000EB40036D
:102BF00052F82330B1F9004083FB04436D4605EBE6
:102C0000C005C5E9004300EB40035B1C52F82330CC
:102C1000B1F9024083FB04436D4605EBC00660CE6C
:102C2000641973416D4605EBC005C5E9004300EB2F
:102C300040039B1C52F82330B1F9044083FB04632A
:102C40006C4604EBC004D4E90054751963416C462A
:102C500004EBC004C4E90053401C0328C6D3DDE9DB
:102C600000439D0045EA94731BB20B80DDE90234FA
:102C70009B0F43EA84031BB24B80DDE904439D00B4
:102C800045EA94731BB28B8006B070BDF0B587B077
:102C900004460D46002004900590069004AB0C22DB
:102CA0001F21484801F0ECF89DF811009DF8101024
:102CB00040EA012000B2ADF808009DF813009DF82D
:102CC000121040EA012000B2ADF80A009DF815008C
:102CD0009DF8141040EA012000B2ADF80C009DF8F8
:102CE00017009DF8161040EA012000B2ADF8000070
:102CF0009DF819009DF8181040EA012000B2ADF8C7
:102D000002009DF81B009DF81A1040EA012000B255
:102D1000ADF80400BDF908104FF4FA5201FB02F0BF
:102D2000FDF774FC06464FF08E41FDF7A9FA2060CE
:102D3000BDF90A104FF4FA5201FB02F0FDF766FCF0
:102D400006464FF08E41FDF79BFA6060BDF90C100E
:102D50004FF4FA5201FB02F0FDF758FC06464FF023
:102D60008E41FDF78DFAA060BDF90000FDF74EFC25
:102D700007461549FDF752FA06464FF08E41FDF71A
:102D80007FFA2860BDF90200FDF740FC07460E49B6
:102D9000FDF744FA06464FF08E41FDF771FA686080
:102DA000BDF90400FDF732FC07460749FDF736FA86
:102DB00006464FF08E41FDF763FAA860002007B089
:102DC000F0BD0000A000002000007A442DE9F04F83
:102DD0008BB00546884691469A46A448006800286C
:102DE00046D1002441E055F82400FDF72EFCC4EB49
:102DF000041202EB82029E4B03EB42129D4B1B68B6
:102E000002EBC30203C255F82400FDF71EFCCDE916
:102E10000801994800EBC400D0E900B35A4608986D
:102E2000FDF76CFA944A02EBC40203C255F8241071
:102E300055F82400FDF7F2F98346FDF706FCCDE9CD
:102E400008018E4800EBC400D0E900B35A46089848
:102E5000FDF754FA894A02EBC40203C2884849F8D4
:102E6000240000204AF82400641C032CBBDBA3E0F0
:102E700000249EE0C4EB041000EB80007C4901EBD1
:102E800040107C49096800EBC100D0E900B37A48E2
:102E900000EBC40003C85A46CDE90801FDF7CFFA9C
:102EA000754A02EBC40203C2C4EB041000EB8001BC
:102EB0006F4800EB41116F48006801EBC000D0E99A
:102EC00000B3C4EB041000EB8000694901EB401033
:102ED0006849096800EBC10103C95A46CDE90601FA
:102EE000FDF7B3FACDE90801644800EBC400D0E96E
:102EF00000B35A460898FDF7A5FA604A02EBC402EF
:102F000003C255F82400FDF7A0FBC4EB041202EB4A
:102F10008202574B03EB4212564B1B6802EBC30273
:102F200003C2C4EB041000EB8000514901EB4010D8
:102F30005049096800EBC100D0E900B34E4800EBEE
:102F4000C40003C85A46CDE90801FDF7D7F94A4A3B
:102F500002EBC40203C2C4EB041000EB800044493E
:102F600001EB40104349096800EBC101C4EB0410B8
:102F700000EB8000D1E900B33D4901EB40113D4831
:102F8000006801EBC00103C95A46CDE90601FDF70F
:102F90005CFACDE90801394800EBC400D0E900B380
:102FA0005A460898FDF7AAF9344A02EBC40203C254
:102FB000641C032CFFF65EAF2E480068401C2D49B0
:102FC000086008460068404504DB002008600120D6
:102FD000264908602548006810B90BB0BDE8F08F9D
:102FE0004046FDF721FB06460F4600243AE0224802
:102FF00000EBC401D1E900B132463B465846FDF72B
:1030000096FACDE90801FDF733FB4AF824001A4887
:1030100000EBC401D1E900B300EBC40103C95A4677
:10302000CDE90001FDF711FA32463B46CDE9020138
:10303000FDF77DFACDE90401104800EBC400D0E9AA
:1030400000B35A460498FDF7FDF932463B46CDE9F8
:103050000601FDF76CFACDE90801FDF709FB49F817
:103060002400641C032CC2DB00BFB6E7680000200C
:10307000780900206C00002098250020B025002051
:103080000000C84270B504460D46002C0BDA2046FD
:1030900000F0D6F8064633462246294602A0FFF73E
:1030A00027F900BFFEE770BD25733A206572726F85
:1030B0007220256420282573290D0A0010B56FF0B1
:1030C0000400FEF77FFD0A4800680A49B0FBF1F0F2
:1030D000094908700846007800EB4001C1EBC010B8
:1030E0004FF6FF7101EAC0000449088010BD0000DE
:1030F0000000002000127A00780000207A000020F2
:103100000146114A12884A434FF0E0235A610022D7
:103110009A611A46126942F001021A6100BF4FF02B
:10312000E022106900F001021AB100F48032002A96
:10313000F5D04FF0E022126922F001024FF0E023B7
:103140001A6100229A6170477A0000200146114AF4
:1031500012784A434FF0E0235A6100229A611A46DE
:10316000126942F001021A6100BF4FF0E0221069BB
:1031700000F001021AB100F48032002AF5D04FF0BD
:10318000E022126922F001024FF0E0231A610022CE
:103190009A6170477800002000BF054A128802F04B
:1031A0004002002AF9D0C2B2014B1B1D1A807047A1
:1031B0000038014010B502460B461146A3F14D0000
:1031C000082814D2DFE800F004070A0D13131310C7
:1031D00001F11C0010BD01F11D00FBE701F11E0013
:1031E000F8E701F11F00F5E701F12000F2E7002008
:1031F000F0E700002DE9F04704464FF07C512046EF
:10320000FDF70CF8814625462E460C48A0EB6606D5
:10321000354629464846FDF701F882462946FCF71F
:10322000FDFF80464FF07F51FCF7F5FF074629462A
:10323000FCF7F4FF05462846BDE8F087DF59375F05
:10324000014601F1100011282AD2DFE800F02725FD
:1032500023211F1D1B1929171513110F0D0B090011
:1032600010A0704711A0FCE715A0FAE718A0F8E736
:103270001BA0F6E725A0F4E729A0F2E72FA0F0E7CE
:1032800033A0EEE736A0ECE739A0EAE73DA0E8E797
:1032900041A0E6E745A0E4E749A0E2E74DA0E0E76A
:1032A00050A0DEE75375636365737300556E7370EA
:1032B00065636966696564206572726F72000000FB
:1032C0004E6F7420696D706C656D656E7465640019
:1032D0005472616E73706F7274206572726F7200D7
:1032E00054696D656F75742C20616374696F6E200D
:1032F000646964206E6F7420636F6D706C657465B3
:1033000020696E2074696D650000000057726F6E51
:10331000672073697A65206572726F720000000021
:103320004F7065726174696E672073797374656D2F
:10333000206661696C75726500000000496E7075E9
:10334000742F4F7574707574206572726F720000FF
:1033500042616420616C6C6F636174696F6E000020
:103360004861726477617265206572726F720000E5
:10337000496E76616C696420617267756D656E7403
:1033800073000000556E6578706563746564206530
:1033900072726F7200000000496E76616C69642081
:1033A00066696C6520666F726D617400496E766146
:1033B0006C69642066696C65207061746800000047
:1033C000556E6B6E6F776E20696D616765207479DD
:1033D000706500005761746368646F67206572727E
:1033E0006F720000556E6B6E6F776E206572726F34
:1033F0007200000070B586B006460D46002400201D
:10340000019002900390049086F86A58002D64D0D1
:10341000012D7DD105AB01224C21304600F030FD5D
:1034200004439DF8140040F0400005909DF81400FE
:1034300000F0DF00059005AB01224C21304600F082
:1034400072FF04438020059005AB0122162130460F
:1034500000F069FF044305AB01225421304600F01F
:103460000FFD04439DF8140040F00100059005ABEA
:1034700001225421304600F056FF044305AB0122DF
:103480005F21304600F0FCFC04439DF8140040F03E
:103490000F0005909DF8140040F02000059005AB4A
:1034A00001225F21304600F03EFF044301200590D9
:1034B00005AB01226021304600F035FF044301A92D
:1034C000304600F089FA044300208DF8050001A978
:1034D000304600F005FE044333E00020059005ABC4
:1034E00001221621304600F01EFF044305AB0122E5
:1034F0005F21304600F0C4FC04439DF8140000F046
:10350000FC0005909DF8140040F00C00059000E0D0
:1035100014E005AB01225F21304600F004FF0443B4
:1035200001A9304600F058FA044301208DF8050047
:1035300001A9304600F0D4FD044302E04FF0FF340F
:1035400000BF00BF204606B070BD38B50546002458
:103550000121284600F0D8FE0443A86920B10128C3
:103560002ED0022836D113E06B4601227C2128465A
:1035700000F086FC04439DF8000000F0FC00009081
:103580006B4601227C21284600F0CDFE044324E056
:103590006B4601227C21284600F072FC04439DF812
:1035A000000040F00C0000906B4601227C21284670
:1035B00000F0B9FE04432846E968884704430CE05C
:1035C000022000906B4601227A21284600F0ABFED3
:1035D000044302E064F00A0400BF00BF0021284653
:1035E00000F092FE0443204638BDF8B506460D466D
:1035F00000246B4601225421304600F041FC044374
:103600009DF8000000F0F70000909DF800002843AE
:1036100000906B4601225421304600F084FE0443A2
:103620002046F8BD3EB5054600240121284600F09D
:103630006BFE044301AB01227A21284600F020FCF6
:1036400004436B4601227C21284600F019FC044308
:103650000021284600F058FE04430120029002ABEE
:1036600001221121284600F05EFE04430CB12046E1
:103670003EBD4FF47A7000F050FE0121284600F064
:1036800043FE044301AB01227A21284600F04BFEA1
:1036900004430021284600F037FE044302AB012218
:1036A0002D21284600F0ECFB04439DF8080000F0B3
:1036B000100010B96FF00B00DAE7284600F0A4FB09
:1036C0000121284600F020FE04436B4601227C21A4
:1036D000284600F028FE044302AB01227B21284645
:1036E00000F0CEFB04439DF8080000F0F9000290C2
:1036F0009DF8080040F00200029002AB01227B21FD
:10370000284600F010FE04430021284600F0FCFD8E
:10371000044302AB01224C21284600F0B1FB0443D4
:103720009DF8080000F0100085F86808A8690228D4
:1037300003D12846E96888470443204698E738B50E
:10374000044600256B4601225F21204600F098FBCD
:1037500005439DF8000040F0EF0000906B46012209
:103760005F21204600F0DFFD0543002084F8690852
:1037700038BD7CB50546002401AB01225221284604
:1037800000F07EFB04439DF8040000F00F00019060
:1037900040F67400405D9DF804100843019001ABB1
:1037A00001225221284600F0BEFD04436B4601224F
:1037B0004E21284600F064FB04439DF8000000F011
:1037C000FC0000909DF8000040F0030000906B4664
:1037D00001224E21284600F0A6FD0443C82000F037
:1037E0009CFD20467CBD7CB50546002401AB012232
:1037F0005221284600F044FB04439DF8040000F0E9
:103800000F00019095F872089DF80410084301908C
:1038100001AB01225221284600F085FD04436B468E
:1038200001224E21284600F02BFB04439DF80000A6
:1038300020F0030000909DF8000040F0020000908E
:103840006B4601224E21284600F06DFD0443C8203E
:1038500000F063FD20467CBDF8B506460D46002409
:10386000002D3FD00121304600F04EFD04436B4651
:1038700001227B21304600F003FB04439DF8000049
:1038800000F0F90000909DF8000040F00400009066
:103890006B4601227B21304600F045FD04430021A8
:1038A000304600F031FD04436B4601224D21304685
:1038B00000F0E6FA04439DF8000000F0FB000090E1
:1038C0009DF8000040F0040000906B4601224D215D
:1038D000304600F028FD044308213046FFF785FEFE
:1038E000044315E06B4601224D21304600F0C8FA32
:1038F00004439DF8000000F0FB0000909DF80000DC
:1039000000906B4601224D21304600F00CFD04432F
:103910002046F8BD2DE9FC4106460027D6F8781868
:10392000D6F87C0870EA01011CD000F0BCF80D4606
:103930000446D6F87828D6F87C18101BA94102D383
:10394000641E45F1000506F6780003C8221A65EBEF
:103950000100204B00219A1A814103D36FF0090026
:10396000BDE8FC8101AB01225221304600F088FA0B
:1039700007439DF8040000F0F000019040F6750048
:10398000805D9DF804100843019001AB0122522193
:10399000304600F0C8FC07436B4601224E213046FA
:1039A00000F06EFA07439DF8000000F0F30000906D
:1039B0009DF8000040F00C0000906B4601224E2163
:1039C000304600F0B0FC0743C82000F0A6FC3846A3
:1039D000C6E70000F0490200F8B506460C4600258F
:1039E000002000906B4602226521304600F048FA24
:1039F00005430421304600F087FC05430DF1020326
:103A000001224D21304600F03BFA054300213046AB
:103A100000F07AFC05439DF80000C0F38010207090
:103A20009DF80000C0F3C00060709DF80000C0F376
:103A30008000A0709DF80000C0F34000E0709DF889
:103A40000100C0F3C00020719DF8010000F00100EA
:103A500060719DF80100C0F34000A0719DF8010065
:103A6000C0F38000E0719DF80200C0F340102072A6
:103A70009DF80200C0F3001060729DF80200C0F3D0
:103A8000C000A0729DF80200C0F34000E0729DF8F3
:103A90000200C0F3800020739DF8020000F00100D6
:103AA00060732846F8BD00200146704770B5054692
:103AB0000C46234601227521284600F0E1F970BD2D
:103AC0002DE9F04104460F46164600254FF40861E3
:103AD0002046FCF740FB1C2239462046FCF722FB1F
:103AE00040F6B83000F019FC2046FFF72EFD2843C1
:103AF000051E02D02846BDE8F0816662204600F02F
:103B000015F805434FF0FF31002004F65804C4E9CE
:103B10000010401E0021C4E9020101460020C4E952
:103B20000810A4F658042846E5E7000030B589B02F
:103B300005460024B34B0FCB8DE80F002846FFF756
:103B400071FD044306AB01224F21284600F098F98D
:103B5000044305AB01225021284600F091F90443AB
:103B60009DF8180000F01F0006909DF818000690C0
:103B70009DF8140000F01F0005909DF8140040F01F
:103B80004000059006AB01224F21284600F0CBFBF8
:103B9000044305AB01225021284600F0C4FB044336
:103BA0000020089008AB01221621284600F0BBFB3C
:103BB000044308AB01226221284600F061F9044366
:103BC0009DF8200000F08F00089008AB01226221D0
:103BD000284600F0A8FB044304AB012254212846E8
:103BE00000F04EF904439DF8100000F0FD00049031
:103BF00004AB01225421284600F095FB0443082120
:103C00002846FFF7F2FC044301212846FFF7F2FBA8
:103C1000044308AB01221421284600F031F9044383
:103C20009DF8200040F0020008909DF8200040F030
:103C30000100089008AB01221421284600F073FB14
:103C400004436946284600F04BFA044301208DF8EE
:103C5000010000208DF802006946284600F08BF92B
:103C6000044308AB01226421284600F009F904430B
:103C70009DF8200000F0EF0008909DF820000890CB
:103C800008AB01226421284600F04DFB044308AB39
:103C900001225121284600F0F3F804439DF820004A
:103CA00000F0F30008909DF8200040F00400089018
:103CB00008AB01225121284600F035FB044308AB34
:103CC00001225321284600F0DBF804439DF8200030
:103CD00000F0E70008909DF8200040F008000890F0
:103CE00008AB01225321284600F01DFB044328465F
:103CF000FFF725FD04430421284600F005FB04439B
:103D00000D208DF81C008DF81D008DF81E0007ABEE
:103D100003224A21284600F006FB044300212846DE
:103D200000F0F2FA04430C20089008AB012257215E
:103D3000284600F0F8FA0443102140F6740041557B
:103D40000121401C4155602085F87208002028643C
:103D50000321284600F0D8FA044308AB01222E21A3
:103D6000284600F08DF804439DF8200000F0FD0087
:103D7000089008AB01222E21284600F0D4FA044313
:103D800008AB01223221284600F07AF804439DF85E
:103D9000200000F09F00089008AB01223221284645
:103DA00000F0C1FA044308AB01223721284600F095
:103DB00067F804439DF8200000F09F00089008ABCE
:103DC00001223721284600F0AEFA044308AB012255
:103DD0003C21284600F054F804439DF8200000F0F0
:103DE0009F00089008AB01223C21284600F09BFA76
:103DF00004430021284600F087FA0443204609B016
:103E000030BD0000C84500082DE9F04106460025F8
:103E10003446204600F016FB38BB012304F11C0297
:103E20004D2120466768B8470543012304F11D0270
:103E30004E2120466768B8470543012304F11E025E
:103E40004F2120466768B8470543012304F11F024C
:103E5000502120466768B8470543012304F120023A
:103E6000542120466768B8470543012304F1210225
:103E7000762120466768B84705432846BDE8F081AB
:103E80002DE9F04707468846154699463E460024E8
:103E90002120805DF0B9304600F0D4FAD0B900BFDF
:103EA00010E008EB0400C1B23846FFF783F9824600
:103EB000BAF1000F04D09AF8000009F8040000E0FD
:103EC00002E0641CAC42ECD300BFAC4202D1002043
:103ED000BDE8F087281B3169884202D96FF00400E1
:103EE000F6E72B1B09EB040208EB0400C1B23046D5
:103EF000D6F804C0E04710B16FF00200E8E70020F8
:103F0000E6E7F8B506460D4600246B46012250212F
:103F10003046FFF7B5FF04439DF8000000F0F000C5
:103F200000909DF80000284300906B46012250212C
:103F3000304600F0F8F904432046F8BDF8B50646CF
:103F40000D4600246B46012250213046FFF798FFB2
:103F500004439DF8000000F01F0000909DF8000051
:103F6000284300906B4601225021304600F0DBF9D7
:103F700004432046F8BDF8B506460C46002500204F
:103F800000900421304600F0BFF905436B46032240
:103F90004F213046FFF774FF05439DF8000000F005
:103FA000D1008DF800009DF80000217809B10121B1
:103FB00000E0002140EA41108DF800009DF800006B
:103FC000617809B1012100E0002140EAC1008DF8CB
:103FD00000009DF80000A17809B1012100E0002156
:103FE00040EA81008DF800009DF80000E17809B1F9
:103FF000012100E0002140EA41008DF800009DF819
:10400000010000F0E1008DF801009DF80100217928
:1040100009B1012100E0002140EA01108DF8010002
:104020009DF80100617909B1012100E0002140EA19
:1040300041008DF801009DF80100A17909B101212D
:1040400000E0002140EA81008DF801009DF80100A8
:10405000E17909B1012100E0002140EAC1008DF8B9
:1040600001009DF8020000F0C6008DF802009DF8E6
:104070000200217A09B1012100E0002140EA41104B
:104080008DF802009DF80200617A09B1012100E07B
:10409000002140EA01108DF802009DF80200A17A8B
:1040A00009B1012100E0002140EAC1008DF80200C1
:1040B0009DF80200617B09B1012100E00021084365
:1040C0008DF802006B4603224F21304600F02BF999
:1040D00005430021304600F017F905432846F8BD96
:1040E000F8B506460C460025002000906B460222DB
:1040F00065213046FFF7C4FE05430421304600F039
:1041000003F905430DF1020301224D213046FFF76B
:10411000B7FE05439DF8000000F0B1008DF80000E7
:104120009DF80000217809B1012100E0002140EA5A
:1041300081108DF800009DF80000617809B101211F
:1041400000E0002140EAC1008DF800009DF8000069
:10415000A17809B1012100E0002140EA81008DF839
:1041600000009DF80000E17809B1012100E0002184
:1041700040EA41008DF800009DF8010000F0F000D9
:104180008DF801009DF80100217909B1012100E0BD
:10419000002140EAC1008DF801009DF8010061791D
:1041A00009B1012100E0002108438DF801009DF8CC
:1041B0000100A17909B1012100E0002140EA41009C
:1041C0008DF801009DF80100E17909B1012100E0BD
:1041D000002140EA81008DF801009DF8020000F006
:1041E000C0008DF802009DF80200217A09B101217A
:1041F00000E0002140EA41108DF802009DF8020025
:10420000617A09B1012100E0002140EA01108DF836
:1042100002009DF80200A17A09B1012100E000210D
:1042200040EAC1008DF802009DF80200E17A09B170
:10423000012100E0002140EA41008DF802009DF8D4
:104240000200217B09B1012100E0002140EA810048
:104250008DF802009DF80200617B09B1012100E0A8
:10426000002108438DF802000DF1020301224D21C7
:10427000304600F058F805430021304600F044F87D
:1042800005436B4602226521304600F04CF8054399
:104290002846F8BDF8B506460D4600246B460122B7
:1042A0004F213046FFF7ECFD04439DF8000000F07D
:1042B000F00000909DF80000284300906B4601221A
:1042C0004F21304600F02FF804432046F8BDF8B5E2
:1042D00006460D4600246B4601224F213046FFF76B
:1042E000CFFD04439DF8000000F01F0000909DF8F2
:1042F0000000284300906B4601224F21304600F019
:1043000012F804432046F8BD13B5044601AB012260
:104310007621204600F007F81CBD10B50446204663
:10432000FEF714FF10BD2DE9F0478046894616467A
:104330001F4645466869B04203D26FF00400BDE8ED
:10434000F087002421E009EB0400762803D1395DD1
:104350002120415518E009EB0400C1B24046FEF7A8
:1043600029FF8246BAF1000F0DD02120405D50B9DF
:10437000284600F067F8012802D16FF00A00DEE756
:10438000385D8AF8000000BF641CB442DBD33346BA
:104390003A4649462846D5F808C0E04710B16FF0C4
:1043A0000200CCE70020CAE72DE9F04180460C4628
:1043B00015461E46374644F080040020094908602F
:1043C0002046FDF781FA05E00020FDF77DFA287010
:1043D0007F1E6D1C002FF7D10120024908600020CC
:1043E000BDE8F081880121422DE9F04781460E4663
:1043F0001746984600240AE0395D3219D0B200F021
:104400000BF8054615B12846BDE8F087641C444505
:10441000F2D30020F8E7000070B505460C460020F6
:10442000064908602846FDF74FFA2046FDF74CFA8A
:1044300001200349C1F88801002070BD8801214294
:104440000000214201468869032805D088690428B4
:1044500002D08869052801D1012070470020FCE7BF
:104460008AB00024FDF7C4FBFEF728FE4FF4E130CC
:1044700000F056F816A0FDF73BFFFCF7CFFBFDF769
:10448000D5F903A8FDF78CFB03A8FDF7F5FA044660
:1044900011A12046FEF7F6FDFDF76CF8002007217C
:1044A0000B462022CDE9001011460120FCF756FAF8
:1044B000044612A12046FEF7E5FD6420FEF720FE2B
:1044C00000BFFCF7D5FE0A20FEF71AFEF9E7000050
:1044D0004F4B0D0A000000006572726F7220776802
:1044E000696C652073657474696E67207570204906
:1044F0004E56206465766963650000006572726FD0
:1045000072207768696C6520636F6E666967757283
:10451000696E6720494E56206465766963650000C0
:1045200010B586B00446012144F20400FDF7F4F80A
:104530002348FDF7C7FD4FF40070ADF814000320C9
:104540008DF8160018208DF8170005A91D48FCF7F6
:1045500040FA4FF48060ADF8140004208DF8170085
:1045600005A91848FCF735FA25208DF8000003202E
:104570008DF801008DF8020001208DF803006846D7
:10458000FDF766F801940020ADF80800ADF80A00C8
:10459000ADF80C00ADF810000C20ADF80E0001A92C
:1045A0000748FDF72DFE012240F225510448FDF792
:1045B00001FE01210248FDF778FD06B010BD0000A4
:1045C0000038014000080140000001000101010124
:1045D000010101010101000025642C212121204558
:1045E00052524F52203A20206261642057484F4176
:1045F0004D492076616C75652E20476F74203078A8
:1046000025303278202865787065637465643A20B7
:10461000307825303278290D0A0000003C46000829
:10462000000000209C00000010230008D84600086D
:104630009C0000209C2B00002023000800A24A04BC
:104640000000000000000000010203040607080942
:10465000000000400000000000000000000000001A
:10466000000000400000000000000000000000000A
:1046700000000040000000000000000000000000FA
:10468000000000000000000000000000000000002A
:10469000000000000000000000000000000000001A
:1046A000000000000000000000000000000000000A
:1046B00000000000000000000000000000000000FA
:1046C00000000000000000000102030401020304D6
:0846D0000607080902040608B0
:04000005080000ED02
:00000001FF
